:100000002DC10000C1C2000094C2000067C2000000
:100010003AC200000DC20000E0C10000B3C1000000
:1000200086C100004CC100004AC1000048C1000068
:1000300046C1000044C1000042C1000040C10000B0
:100040003EC100003CC100003AC1000038C10000C0
:1000500036C1000034C1000032C100000C94450CD0
:100060002EC1000032C70000BAC2000028C1000043
:1000700026C1000024C1000022C1000020C10000F0
:100080001EC100001CC100001AC1000018C1000000
:1000900016C1000014C1000012C10000D4C7000046
:1000A0000EC100000CC100000AC1000008C1000020
:1000B00006C1000004C1000002C1000000C1000030
:1000C000FEC00000FCC00000FAC00000F8C0000044
:1000D000F6C00000F4C00000F2C00000F0C0000054
:1000E000EEC00000E5106E0F9110DD10E510E51078
:1000F000E010180A1B0A0A0A0E0A140A520A1F0AFA
:10010000230A290A2D0A310A370A3B0A3F0A520AF2
:10011000450A490A4D0A990B9E0BA30BAD0BB70B71
:10012000300CC10BC90BD10BDB0BE50BEF0BFE0B3E
:10013000080C300C120C1C0C260C000021002400B2
:1001400027002A002D0030003300010100000401C7
:1001500007010A0100002200250028002B002E00C4
:100160003100340002010000050108010B0100000C
:1001700020002300260029002C002F00320000015F
:10018000000003010601090105050505070508082A
:100190000808020202020A0A080804040404010111
:1001A0000101010101010303030303030303040726
:1001B00007070C0C0C0C0C0C0C0C020202020606BD
:1001C0000606060606060B0B0B0B0B0B0B0B0102B0
:1001D0001020200808102040102040800201020159
:1001E0000804020101020408102040808040201011
:1001F000080402018004020180402010080402016A
:1002000008040201010204081020408001020408D1
:100210001020408000000A0B02090C0D0E08070395
:1002200004010000000000000000000000000000C9
:1002300000000000000000000000000000000000BE
:10024000121110000000000000000000000000007B
:10025000000000000000000000000F1111241FBE6C
:10026000CFEFD1E2DEBFCDBF00E00CBF12E0A0E0D7
:10027000B2E0E4E6FAE200E00BBF02C007900D92A4
:10028000A43FB107D9F724E0A4EFB2E001C01D926A
:10029000A33FB207E1F711E0CEE2D1E000E006C0F3
:1002A00021970109802FFE010E941B15CD32D10735
:1002B00080E00807A9F70E948F0C0C943015A0CE9F
:1002C0000895CF92DF92EF92FF920F931F93CF93F7
:1002D000DF936C017A018B01C0E0D0E0CE15DF0521
:1002E00089F0D8016D918D01D601ED91FC910190BD
:1002F000F081E02DC6011995892B11F47E0102C011
:100300002196ECCFC701DF91CF911F910F91FF9004
:10031000EF90DF90CF9008950E94231586E693E03A
:1003200057D421E0892B09F420E0822F08951F92F1
:100330000F920FB60F9211240BB60F922F933F938B
:100340004F935F936F937F938F939F93AF93BF93DD
:10035000EF93FF93E0910E02F0910F021995FF9138
:10036000EF91BF91AF919F918F917F916F915F912D
:100370004F913F912F910F900BBE0F900FBE0F909A
:100380001F9018951F920F920FB60F9211240BB663
:100390000F922F933F934F935F936F937F938F931E
:1003A0009F93AF93BF93EF93FF93E0910C02F09173
:1003B0000D021995FF91EF91BF91AF919F918F9190
:1003C0007F916F915F914F913F912F910F900BBE55
:1003D0000F900FBE0F901F9018951F920F920FB69F
:1003E0000F9211240BB60F922F933F934F935F936D
:1003F0006F937F938F939F93AF93BF93EF93FF93ED
:10040000E0910202F09103021995FF91EF91BF91E3
:10041000AF919F918F917F916F915F914F913F919C
:100420002F910F900BBE0F900FBE0F901F9018953D
:100430001F920F920FB60F9211240BB60F922F93AB
:100440003F934F935F936F937F938F939F93AF935C
:10045000BF93EF93FF93E0910002F0910102199591
:10046000FF91EF91BF91AF919F918F917F916F918C
:100470005F914F913F912F910F900BBE0F900FBE48
:100480000F901F9018951F920F920FB60F92112484
:100490000BB60F922F933F934F935F936F937F937E
:1004A0008F939F93AF93BF93EF93FF93E0910A02D3
:1004B000F0910B021995FF91EF91BF91AF919F9130
:1004C0008F917F916F915F914F913F912F910F90FD
:1004D0000BBE0F900FBE0F901F9018951F920F929A
:1004E0000FB60F9211240BB60F922F933F934F9399
:1004F0005F936F937F938F939F93AF93BF93EF938C
:10050000FF93E0910802F09109021995FF91EF9194
:10051000BF91AF919F918F917F916F915F914F911B
:100520003F912F910F900BBE0F900FBE0F901F9019
:1005300018951F920F920FB60F9211240BB60F92BF
:100540002F933F934F935F936F937F938F939F93DB
:10055000AF93BF93EF93FF93E0910602F0910702F0
:100560001995FF91EF91BF91AF919F918F917F91DD
:100570006F915F914F913F912F910F900BBE0F9014
:100580000FBE0F901F9018951F920F920FB60F92EB
:1005900011240BB60F922F933F934F935F936F935A
:1005A0007F938F939F93AF93BF93EF93FF93E091CC
:1005B0000402F09105021995FF91EF91BF91AF915F
:1005C0009F918F917F916F915F914F913F912F916B
:1005D0000F900BBE0F900FBE0F901F9018951F929B
:1005E0000F920FB60F9211240BB60F922F933F93D9
:1005F0004F935F936F937F938F939F93AF93BF932B
:10060000EF93FF9386E693E096D4FF91EF91BF912D
:10061000AF919F918F917F916F915F914F913F919A
:100620002F910F900BBE0F900FBE0F901F9018953B
:10063000E0911404F0911504808135D7892BD1F015
:10064000E0911604F091170480812DD7892B91F049
:10065000809126048330D9F4809110049091110484
:100660006DD6809112049091130468D682E0809335
:100670002604089583E080932604809110049091CD
:10068000110474D680911204909113046FC60895DA
:10069000E0911004F09111044285538564857585BD
:1006A00086859785A089B189481759076A077B070E
:1006B00019F1452B462B472BF9F00297A105B105FF
:1006C000DCF4E0911204F091130482859385A485F3
:1006D000B585468557856089718984179507A60772
:1006E000B70751F0892B8A2B8B2B31F081E04230F8
:1006F0005105610571050CF080E00895382F2091B7
:10070000650390916403213208F049C08091410350
:100710008111FCCF42E040934103309340033FEF0F
:1007200030933F0310923E0320933D03A4E4B3E0D3
:100730004DE153E0FA013E2F341B321718F43D917E
:100740003193F9CF10921C0320911C03990F922B27
:1007500090931C0390911B03913061F410921B0342
:1007600090911C039093BB009091BC0093FDF8CF37
:1007700095EC01C095EE9093BC00909141039230AE
:10078000E1F390913F039F3F79F080913F038032E6
:1007900041F080913F03803331F084E005C081E077
:1007A00003C082E001C083E010924303109265030E
:1007B000109242030895909141039111FCCF91E072
:1007C00090934103909340032FEF20933F031092A7
:1007D0003E03260F20933D0390931C0390911C032E
:1007E000880F892B80931C0380911B03813061F457
:1007F00010921B0380911C038093BB008091BC006E
:1008000083FDF8CF85EC01C085EE8093BC0080911C
:1008100041038130E1F380913E03861710F460912B
:100820003E03ADE1B3E02BEF32E0F9018E2F821BE6
:10083000861718F48D918193F9CF862F0895CF9262
:10084000DF92EF92FF920F931F93CF93DF931F924C
:100850001F92CDB7DEB77C01162F80913804882314
:1008600019F0813079F151C08091390491E0909371
:10087000420380936403109243031092650383E064
:1008800094E07BD281E03ADF81113CC062E080914C
:10089000390491DFD82E1092F9028093FA028E016A
:1008A0000F5F1F4F92E0C92EC00E8091F902D8163B
:1008B00061F1C01651F183E094E0DED1F80181933B
:1008C0008F01F3CF60E080913A0415D6812F8068C4
:1008D000EBD480E0E9D411E08F3F09F010E0898388
:1008E00080E0E2D48F3F09F41F5F8A83123019F44D
:1008F00005E010E002C000E010E061E080913A0401
:10090000FAD505C001E010E002C000E010E02A8145
:1009100030E0322F22278981282BF7013183208371
:10092000C8010F900F90DF91CF911F910F91FF9011
:10093000EF90DF90CF900895CF92DF92EF92FF92E9
:10094000CF93DF931F921F92CDB7DEB76AE2CE013D
:10095000019675DF0097A9F0059751F48091550431
:10096000909156040196909356048093550409C0C3
:100970008091570490915804019690935804809365
:10098000570469817A81072E000C880B990B0E940D
:100990009D1323E23BED49E75DE30E94A4146B0144
:1009A0007C01809146049091470496958795BC01FF
:1009B00080E090E00E949B139B01AC01C701B6014F
:1009C0000E94A41420E030E04AE754E40E9402139D
:1009D0000F900F90DF91CF91FF90EF90DF90CF902D
:1009E0000895CF92DF92EF92FF92CF93DF931F9201
:1009F0001F92CDB7DEB768E2CE01019620DF0097E7
:100A0000A9F0059751F480915504909156040196F0
:100A1000909356048093550409C080915704909197
:100A200058040196909358048093570469817A8101
:100A3000072E000C880B990B0E949D1323E23BEDBF
:100A400049E75DE30E94A4146B017C018091460498
:100A50009091470496958795BC0180E090E00E94B4
:100A60009B139B01AC01C701B6010E94A41420E0B6
:100A700030E04AE754E40E9402130F900F90DF9198
:100A8000CF91FF90EF90DF90CF900895CF92DF92BB
:100A9000EF92FF921F93CF93DF931F921F92CDB7D8
:100AA000DEB766E2CE010196CADE0097A9F005978F
:100AB00051F48091550490915604019690935604F8
:100AC0008093550409C08091570490915804019671
:100AD000909358048093570429813A8180913C0473
:100AE00090913D04853F910531F06DE770E00E94E3
:100AF0000715162F01C012E0B901330F880B990BAF
:100B00000E949D1320E030E04CE850E40E94A414C1
:100B10006B017C01612F70E080E090E00E949D13EA
:100B20009B01AC01C701B6010E94A41420E030E093
:100B30004AE754E40E9402130F900F90DF91CF9187
:100B40001F91FF90EF90DF90CF900895009761F094
:100B5000FC0101900020E9F73197AF01481B590BC8
:100B6000BC0186E693E0ADCB80E090E00895FC0107
:100B7000538D448D252F30E0842F90E0821B930B02
:100B8000541710F0CF96089501970895FC01918DA8
:100B9000828D981761F0828DDF01A80FB11D5D96DF
:100BA0008C91928D9F5F9F73928F90E008958FEF4D
:100BB0009FEF0895FC01918D828D981731F0828D01
:100BC000E80FF11D858D90E008958FEF9FEF089558
:100BD000FC01918D228D892F90E0805C9F4F821BBC
:100BE00091098F739927089580E090E0892B19F07F
:100BF00095DB811125C080E090E0892B41F080E0F9
:100C000090E0892B21F00E94000081111CC080E03F
:100C100090E0892B41F080E090E0892B21F00E9448
:100C20000000811113C080E090E0892BA1F080E0EA
:100C300090E0892B81F00E94000081110AC0089584
:100C40000E940000D8CF0E940000E1CF0E94000067
:100C5000EACF0C94000008950895E091F902809184
:100C6000FA02E81730F4F0E0E550FD4F808190E0A3
:100C700008958FEF9FEF08959091F9028091FA0205
:100C8000981750F4E92FF0E0E550FD4F208130E057
:100C90009F5F9093F90202C02FEF3FEFC9010895C3
:100CA0008091FA0290E02091F902821B9109089547
:100CB000089580E090E0089585ED8093BC008091D8
:100CC000BC0084FDFCCF1092410308954091C504FF
:100CD000262F30E0240F311D21323105DCF4209124
:100CE00041032430C9F4FC0180E090E0861758F4F9
:100CF0003091C5042191DC01AD55BB4FA30FB11D4F
:100D00002C930196F3CF8091C504680F6093C504BE
:100D100080E0089581E0089582E00895CF92DF9207
:100D2000EF92FF920F931F93CF93DF937C01262FB7
:100D3000972F8A0180914203882391F0C62FD72FE5
:100D40006E01C40ED51ECC15DD0569F06991D70181
:100D5000ED91FC910190F081E02DC7011995F3CF41
:100D6000642F822FB3DFC801DF91CF911F910F91C4
:100D7000FF90EF90DF90CF900895CF93DF931F9275
:100D8000CDB7DEB76983209142032223D1F02091B1
:100D90006503203240F021E030E0FC013383228300
:100DA00080E090E014C080914303E82FF0E0EC5B1A
:100DB000FC4F998190838F5F8093430380936503F9
:100DC00004C061E0CE01019681DF81E090E00F90E8
:100DD000DF91CF910895ECE8F4E086859785A089AE
:100DE000B1890197A109B10986879787A08BB18B3B
:100DF0000895E7E7F4E086859785A089B189019792
:100E0000A109B10986879787A08BB18B0895CF92EE
:100E1000DF92EF92FF92CF93DF93FC0142855385DF
:100E200064857585452B462B472B09F446C0EC019C
:100E300066857785808991890E949D136B017C016D
:100E40006E817F81888599850E949D139B01AC01ED
:100E5000C701B6010E9402136B017C0120E030E063
:100E600040E85FE30E94A01487FF0DC020E030E05F
:100E7000A901C701B6010E94FE12181654F0C12C38
:100E8000D12C760106C0C12CD12C80E8E82E8FE34E
:100E9000F82E688170E080E090E00E949D139B0135
:100EA000AC01C701B6010E94A4140E946F1399817E
:100EB000862F691718F4892F01C080E0DF91CF9148
:100EC000FF90EF90DF90CF9008951F920F920FB692
:100ED0000F9211240BB60F922F938F939F93EF9342
:100EE000FF93E0917603F09177038081E0917C039A
:100EF000F0917D0382FD12C0908180917F038F5F0E
:100F00008F7320918003821751F0E0917F03F0E00E
:100F1000EA59FC4F958F80937F0301C08081FF9138
:100F2000EF919F918F912F910F900BBE0F900FBE5D
:100F30000F901F901895FC01848DDF01A80FB11D43
:100F4000A35ABF4F2C91848D90E001968F739927FF
:100F5000848FA689B7892C93A089B1898C918064EC
:100F60008C93938D848D981306C00288F389E02DAD
:100F700080818F7D80830895EF92FF920F931F935E
:100F8000CF93DF93EC0181E0888F9B8D8C8D98133C
:100F900005C0E889F989808185FD23C0F62E0B8D77
:100FA00010E00F5F1F4F0F731127E02E8C8DE8129A
:100FB0000BC00FB607FCFACFE889F989808185FF5D
:100FC000F5CFCE01B8DFF2CF8B8DFE01E80FF11D1A
:100FD000E35AFF4FF0820B8FEA89FB8980818062A0
:100FE00007C0EE89FF896083E889F9898081806480
:100FF000808381E090E0DF91CF911F910F91FF906E
:10100000EF900895CF93DF93EC01888D8823C1F092
:10101000EA89FB89808185FD05C0A889B9898C9101
:1010200086FD0EC00FB607FCF5CF808185FFF2CF9D
:10103000A889B9898C9185FFEDCFCE017CDFE8CFFF
:10104000DF91CF9108951F920F920FB60F92112446
:101050000BB60F922F933F934F935F936F937F93B2
:101060008F939F93AF93BF93EF93FF938091B900BA
:10107000887F803609F49CC068F5883209F45BC02B
:1010800090F4803109F454C038F4882309F4F6C090
:10109000883009F44DC0F5C0883109F44CC0803265
:1010A00009F45DC0EEC0803409F468C048F48033B0
:1010B00009F455C0883309F0E4C080933F03D8C0D9
:1010C000803509F44FC0883509F45DC0883409F0D3
:1010D000D8C0D6C0883909F4C7C0A8F4883709F445
:1010E00067C038F4883609F463C0803709F460C0FB
:1010F000C8C0883809F4B8C0803909F45FC08038A6
:1011000009F0BFC05BC0803B09F486C038F4803A68
:1011100009F466C0883A09F47FC0B3C0803C09F482
:10112000A7C0883C09F4A4C0883B09F48AC0A9C0C0
:1011300080911C0310C090913E0380913D0398174D
:1011400070F5E0913E0381E08E0F80933E03F0E066
:10115000E35EFC4F80818093BB0085EC86C080936A
:101160003F038EC0E0913E0381E08E0F80933E03EB
:101170008091BB00F0E0E35EFC4F808390913E03E2
:1011800080913D036EC0E0913E0381E08E0F80931D
:101190003E038091BB00F0E0E35EFC4F80838091D2
:1011A000400381116DC081E080931B0384EA61C01C
:1011B00083E0809341031092E904CFCF8091E9044A
:1011C000803208F051C0E091E90481E08E0F8093F5
:1011D000E9048091BB00F0E0E753FB4F8083BDCF73
:1011E00085EC8093BC00109241038091E904803229
:1011F00030F4E091E904F0E0E753FB4F1082609196
:10120000E90470E0E091C704F091C80489EC94E02F
:1012100019951092E90435C084E08093410310923F
:10122000C6041092C504E091C304F091C40419955A
:101230008091C504811105C081E08093C50410929E
:10124000A304E091C60481E08E0F8093C604F0E011
:10125000ED55FB4F80818093BB009091C604809137
:10126000C504981708F479CF85E88093BC0009C0BD
:1012700085EC8093BC001092410303C010923F03A1
:101280001BDDFF91EF91BF91AF919F918F917F9166
:101290006F915F914F913F912F910F900BBE0F90E7
:1012A0000FBE0F901F9018958EBD00000DB407FE65
:1012B000FDCF8EB50895CF93DF93EC0161E08C8173
:1012C0001AD160E070E08B810DD21E861F86188ACD
:1012D000198ADF91CF910895CF93DF93EC018E852A
:1012E0009F85A889B98981159442A44FB10524F03E
:1012F0001E861F86188A198A8E859F85A889B989B6
:10130000B7FF07C0CE01D7DF1E861F86188A198A4D
:1013100012C08B8981110FC0CE0179DD9A8998178F
:1013200051F08A8B60E08C81E6D06A8970E08B8115
:10133000DF91CF91D7C1DF91CF910895CF93DF9304
:10134000EC011B8A60E08C81D6D08E859F85A889B0
:10135000B989892B8A2B8B2B31F0688170E08B81C6
:10136000DF91CF91BFC1DF91CF910895CF93DF93EC
:10137000EC0181E08B8B61E08C81BDD060E070E09E
:101380008B81DF91CF91AEC1CF92DF92EF92FF922E
:10139000CF93DF93EC016A017B0177FF03C01C8AC6
:1013A00060E003C081E08C8B61E08A81A4D0F7FE0D
:1013B00008C0F094E094D094C094C11CD11CE11CEE
:1013C000F11CCE0124DD8A8B60E08C8194D06A8987
:1013D00070E08B8187D1CE86DF86E88AF98ACA865B
:1013E000DB86EC86FD86CE01C1DFCE01DF91CF9199
:1013F000FF90EF90DF90CF90A1CF90E0FC0131976C
:10140000E231F10508F04EC08827E758FF4F8F4FB3
:101410000C941B15809180008F7703C08091800011
:101420008F7D80938000089580918000877FF9CF21
:1014300084B58F7702C084B58F7D84BD0895809177
:10144000B0008F7703C08091B0008F7D8093B00093
:101450000895809190008F7707C0809190008F7DD4
:1014600003C080919000877F8093900008958091C1
:10147000A0008F7707C08091A0008F7D03C080916E
:10148000A000877F8093A0000895809120018F772E
:1014900007C0809120018F7D03C080912001877F4C
:1014A000809320010895CF93DF93282F30E0F90136
:1014B000EC5EFD4F8491F901E253FE4FD491F901A6
:1014C000E857FE4FC491CC2389F0811196DFEC2FB1
:1014D000F0E0EE0FFF1FE259FE4FA591B491EC91A1
:1014E000ED2381E090E021F480E002C080E090E014
:1014F000DF91CF9108951F93CF93DF93282F30E092
:10150000F901EC5EFD4F8491F901E253FE4FD49155
:10151000F901E857FE4FC491CC23C1F0162F811179
:101520006CDFEC2FF0E0EE0FFF1FEC5AFE4FA591A1
:10153000B4918FB7F894111105C09C91ED2FE095EF
:10154000E92302C0EC91ED2BEC938FBFDF91CF919B
:101550001F910895EF92FF921F93CF93DF937C0129
:10156000C62F90913804992319F0913049F13AC06F
:101570008091390491E09093420380936403109228
:1015800043031092650383E094E0F7DB81E0B6D873
:10159000D1E0C0E0811101C0D0E061E08091390468
:1015A0000AD91092F9028093FA029091FA0280917E
:1015B000F9029817C9F083E094E05EDB182FF5CFAD
:1015C00060E080913A0497DF8C2F80686DDE80E0C8
:1015D0006BDE182F61E080913A048DDF1F3F11F41C
:1015E000D5E001C0D0E0C0E0F70110838D2F9C2F23
:1015F000DF91CF911F91FF90EF900895CF93DF93EC
:10160000D82FC62F80913804882379F0813049F58E
:1016100060E080913A046FDF8D2F46DE8C2F44DE30
:1016200061E080913A0467DF1CC08091390491E049
:1016300090934203809364031092430310926503D6
:101640006D2F83E094E099DB6C2F83E094E095DBD1
:1016500081E054D821E090E0811101C020E0822F88
:1016600002C080E090E0DF91CF910895CF93DF93A7
:1016700090E0FC01E253FE4F2491FC01E857FE4F3D
:101680008491882361F190E0880F991FFC01E65C4A
:10169000FE4FC591D491FC01EC5AFE4FA591B49137
:1016A000611109C09FB7F8948881209582238883AF
:1016B000EC912E230BC0623061F49FB7F89438810F
:1016C000822F809583238883EC912E2B2C939FBFB0
:1016D00006C08FB7F894E8812E2B28838FBFDF9147
:1016E000CF9108951F93CF93DF93182FEB0161E003
:1016F000BDDF209711F460E004C0CF3FD10531F485
:1017000061E0812FDF91CF911F91F5CEE12FF0E0C5
:10171000EC5EFD4FE4914E2F50E0FA013197E2313B
:10172000F10508F09DC08827E557FF4F8F4F0C94B7
:101730001B1584B5806884BDC7BD97C084B5806221
:1017400084BDC8BD92C08091800080688093800075
:10175000D0938900C093880088C080918000806207
:1017600080938000D0938B00C0938A007EC08091CC
:101770008000886080938000D0938D00C0938C009F
:1017800074C08091B00080688093B000C093B300B3
:101790006CC08091B00080628093B000C093B400B0
:1017A00064C080919000806880939000D0939900ED
:1017B000C09398005AC080919000806280939000FE
:1017C000D0939B00C0939A0050C080919000886095
:1017D00080939000D0939D00C0939C0046C0809160
:1017E000A00080688093A0008091A0008F7B8093F0
:1017F000A000D093A900C093A80037C08091A0009A
:1018000080628093A000D093AB00C093AA002DC04B
:101810008091A00088608093A000D093AD00C09319
:10182000AC0023C080912001806880932001D09378
:101830002901C093280119C0809120018062809302
:101840002001D0932B01C0932A010FC08091200169
:10185000886080932001D0932D01C0932C0105C096
:10186000C038D1050CF04CCF46CFDF91CF911F91FE
:1018700008952FB7F8946091EF047091F00480916F
:10188000F1049091F2042FBF08951F920F920FB6AA
:101890000F9211242F933F938F939F93AF93BF93F6
:1018A0008091EF049091F004A091F104B091F204C2
:1018B0003091EE0423E0230F2D3720F40196A11D73
:1018C000B11D05C026E8230F0296A11DB11D20936E
:1018D000EE048093EF049093F004A093F104B0938E
:1018E000F2048091EA049091EB04A091EC04B09191
:1018F000ED040196A11DB11D8093EA049093EB04C1
:10190000A093EC04B093ED04BF91AF919F918F91A0
:101910003F912F910F900FBE0F901F901895CF936E
:10192000DF9300D0CDB7DEB7789484B5826084BDF4
:1019300084B5816084BD85B5826085BD85B58160D3
:1019400085BD80916E00816080936E001092810051
:10195000809181008260809381008091810081600C
:1019600080938100809180008160809380008091CD
:10197000B10084608093B1008091B0008160809359
:10198000B0008091910082608093910080919100DD
:10199000816080939100809190008160809390009D
:1019A0008091A10082608093A1008091A10081605C
:1019B0008093A1008091A00081608093A00080911D
:1019C00021018260809321018091210181608093B7
:1019D00021018091200181608093200180917A0013
:1019E000846080937A0080917A00826080937A008C
:1019F00080917A00816080937A0080917A0080687B
:101A000080937A001092C100E0917603F091770301
:101A100082E08083E0917203F09173031082E09181
:101A20007403F09175038FEC808310927E03E09134
:101A30007A03F0917B0386E08083E0917803F09154
:101A40007903808180618083E0917803F09179034C
:101A5000808188608083E0917803F09179038081B0
:101A600080688083E0917803F091790380818F7D95
:101A700080838FE492E06AD860E082E1F7DD60E085
:101A800083E1F4DD8BEE96E090930B0280930A02E3
:101A9000809169008F73806880936900EB9A89EF69
:101AA00096E09093090280930802809169008F7CF0
:101AB000806280936900EA9ADCDE6093F50270939D
:101AC000F6028093F7029093F8021B82809138040B
:101AD000882319F0813039F169C01092F90210920F
:101AE000FA0210924303109265031092410381E0C1
:101AF0008093400310921B0361E084E1FCDC61E011
:101B000085E1F9DC8091B9008E7F8093B9008091E6
:101B1000B9008D7F8093B90088E48093B80085E494
:101B20008093BC0043C01FB7F8948091F4028111E8
:101B300023C0EDEBF1E08491E3E0F2E09491E82F33
:101B4000F0E0EE0FFF1FE65CFE4FA591B491EC9123
:101B5000E92319F461E085E3CEDC61E085E386DD0D
:101B60008CB580618CBD8CB580648CBD61E084E3F4
:101B70007DDD61E083E37ADD8091F4028F5F809305
:101B8000F4021FBF8CB58C7F8CBD8DB58E7F8DBD53
:101B90008CB58F7D8CBD8CB58C608CBD61E08091E7
:101BA0003A0464DD61E080913A04A5DC1A8280E1A8
:101BB00097E22A812F5F2A830197D9F76FE0CE0140
:101BC0000196C8DC19811B8220914404213009F060
:101BD00069C080914A0490914B048436910539F094
:101BE000883C910539F0C29731F483E001C082E06E
:101BF0008B8301C02B8320914604309147048B8155
:101C00002430310541F02830310539F022303105DA
:101C100031F0846003C0886001C08C608B832091A8
:101C20004804309149048B81203A41E0340771F136
:101C300080F42A31310511F128F42D30310511F5E8
:101C400080612FC024333105D9F0203D3105E1F00A
:101C500019C022309DE03907F9F040F42134F3E057
:101C60003F07B1F02C373640A9F00CC024305AE1C0
:101C70003507A1F02231344399F004C0806211C0CD
:101C800080630FC080640DC080650BC0806609C092
:101C9000806707C0806805C0806903C0806A01C092
:101CA000806B8B836B8180E1A9DC63E1CE010396BD
:101CB00051DC8B818F778B8390914504913011F4A7
:101CC00080688B836B8183E199DC1B8280913B046C
:101CD000813009F048C080913C0490913D04853FDB
:101CE000910599F028F48D37910569F482E00CC0D4
:101CF000843FE1E09E0729F0883E934021F488E08C
:101D000003C084E001C08CE08B8320913E043091BD
:101D10003F048B81203D3105F1F058F42A31310523
:101D2000A1F02433310599F02D30310591F4806113
:101D300019C0213443E0340791F02C3756E03507C1
:101D400081F0203A314029F408C080620BC08063E2
:101D500009C0806407C0806505C0806603C08067D5
:101D600001C080688B836B8181E148DC6FE0CE012C
:101D70000196F0DB193619F08EE692E002C08EE78C
:101D800092E00E94A6058BE792E00E94A6050E94C1
:101D9000460560936B0470936C0480936D0490937C
:101DA0006E040E94F10460936F047093700480933A
:101DB0007104909372040E949C0460937304709366
:101DC000740480937504909376048FE094E090936C
:101DD00019048093180495E0392E23E0222EEE2476
:101DE000E39432E0F32E87E794E076DA8CE894E02F
:101DF00073DA3FDDA0D42FE632E143E85AE3A4D5FD
:101E00002B013C010E94460520916B0430916C042B
:101E100040916D0450916E048CD34B015C01609332
:101E20005B0470935C0480935D0490935E04209146
:101E30006704309168044091690450916A04C301B9
:101E4000B20177D39B01AC01C501B4017DD542D469
:101E50002091590430915A04C901860F971F90931D
:101E60005A04809359040E94F10420916F04309128
:101E7000700440917104509172045BD360935F04CD
:101E80007093600480936104909362040E949C04A8
:101E9000209173043091740440917504509176043C
:101EA00048D36093630470936404809365049093B3
:101EB00066044092670450926804609269047092CC
:101EC0006A048091260490E08730910508F07BC178
:101ED000FC018827EE58FF4F8F4FADC5E0911804E5
:101EE000F0911904E081EB3040F4F0E0EE0FFF1FB9
:101EF000E05FFD4F8081918102C08DE792E0FC019F
:101F00004081518162817381409331045093320446
:101F100060933304709334040596E6D28C01909359
:101F200037048093360469E872E081E394E08FD54A
:101F3000892B59F42801110F66087708B301A20113
:101F400080911004909111041BC06EE872E081E34F
:101F500094E07DD5892B09F58091100490911104AE
:101F6000FC0126813781029F2001039F500C129FA4
:101F7000500C1124052C000C66087708B301A2014F
:101F800003DAB301A2018091120490911304FCD9E9
:101F9000E0922C04F0922604BCC063E972E081E375
:101FA00094E055D5892B09F088C01093250400933F
:101FB0002404E0911A04F0911B0412A211A2C09013
:101FC0001004D0901104F601668177818085918597
:101FD000B4D320E030E044EB53E414D32B013C01B4
:101FE00060912F0470913004072E000C880B990B20
:101FF000A4D34B015C0160912D0470912E04072E37
:10200000000C880B990B99D39B01AC01C501B4015D
:10201000F9D29B01AC01C301B20196D42B013C0162
:10202000B80117FF04C066277727601B710B072EC6
:10203000000C880B990B81D39B01AC01C301B20149
:1020400083D42DEC3CEC4CEC5FE37ED42B013C01C3
:102050004B015C01B7FAB094B7F8B09410161106B2
:102060004CF4A6D337D3AB01BC01C6018DD9C50151
:10207000B4010AC0C501B4019BD32CD3AB01BC0190
:10208000C60182D9C301B20193D324D3AB01BC01F1
:10209000809112049091130477D980912404909137
:1020A000250497FF03C0919581959109909325048C
:1020B0008093240420922C046DCF68E972E081E3C0
:1020C00094E0C5D4892BE1F4D4DB60931C047093B5
:1020D0001D0480931E0490931F04809136049091F8
:1020E0003704092E000CAA0BBB0B8093200490939D
:1020F0002104A0932204B0932304F0922C044ACF2D
:102100006DE972E081E394E0A2D4892B11F430925E
:102110002604E0911804F091190480818F5F808378
:1021200054C080912C04823029F0833001F1813039
:10213000B9F532C09EDB00911C0410911D04209162
:102140001E0430911F04DC01CB01801B910BA20BFC
:10215000B30B0091200410912104209122043091AE
:10216000230480179107A207B307D0F426C0E0919B
:102170001A04F0911B0481A192A197FF03C09195CD
:10218000819591092091240430912504A901481BCF
:10219000590B4630510524F00E944803882369F00A
:1021A000E0922604809110049091110484D88091CB
:1021B0001204909113047FD808C00E94180305C030
:1021C0002092260402C03092260480912604853095
:1021D00019F14FDB0091F5021091F6022091F70200
:1021E0003091F802DC01CB01801B910BA20BB30BE9
:1021F000883E9340A105B10578F03BDB6093F50282
:102200007093F6028093F7029093F802809126046F
:10221000811102C0E09226040E94F405E4CD8F9261
:102220009F92AF92BF92CF92DF92EF92FF920F9365
:102230001F93CF93DF93E6E6F3E01382128288EEDA
:1022400093E0A0E0B0E084839583A683B7832FE278
:1022500032E03183208325EC30E03587248724EC7D
:1022600030E03787268720EC30E0318B208B21EC63
:1022700030E0338B228B22EC30E0358B248B26EC44
:1022800030E0378B268B118E128E138E148EE3E086
:10229000F4E01382128284839583A683B78381E45A
:1022A00092E0918380838CE8E82E84E0F82ED8ECCD
:1022B000F701D083C6E9C1838CE0828383E0838306
:1022C00089E0848382E185839CE5892E93E0992EC1
:1022D000A12CB12C86829782A086B18612861386A5
:1022E0001486158616861786108A118A128A138A12
:1022F000148A61E08CE0BAD961E0F7018381B6D934
:1023000061E0F7018481B2D962E0F7018581AED93D
:1023100011E0F701148B61E08281EDD827E7C22E2E
:1023200024E0D22EF601D083C1838DE082838BE03E
:10233000838388E0848383E1858386829782A08675
:10234000B186128613861486158616861786108A1D
:10235000118A128A138A148A61E08DE087D961E0BC
:10236000F601838183D961E0F60184817FD962E03F
:10237000F60185817BD9F601148B61E08281BBD89F
:1023800084E38093A20460E071D982E38093A10486
:1023900060E06CD9C8E3D4E018828AE08A838AE6D8
:1023A00089831B8380ED97E09D838C8380EA91E095
:1023B0009F838E8320E931E0398728871A871B871E
:1023C0001C871D8720E130E03F872E87998B888B03
:1023D00034E6A32EB12CBB8AAA8A1C8B1D8B1E8BC4
:1023E0001F8B88EB9BE0998F888F8AE090E09B8F12
:1023F0008A8F1C8E1E8E1D8E18A21F8E1AA219A2E5
:102400001BA21CA21DA21EA21FA218A619A61AA6D4
:102410001BA61CA61DA61EA62CDA8DD12FE632E126
:1024200043E85AE391D26FA778AB89AB9AAB1BAA6A
:102430001CAA1DAA1EAA1FAA18AE19AE1AAE1BAE60
:102440001CAE1DAE1EAE00E114E0F801D182C082C8
:10245000F382E28282EA94E09583848381EA94E0C5
:102460009783868311861086D387C28702DAF801A4
:102470006487758786879787108A118A128A138ADC
:10248000158A148A168A108E178A128E118E88E782
:10249000838F148EB68EA58E85EA90E090A3878FE9
:1024A00085E0E6E2F2E0A1E3B4E001900D928A95C6
:1024B000E1F7F80117A216A2808191810E94B60966
:1024C000F801828193810E94B60910920F04DF9176
:1024D000CF911F910F91FF90EF90DF90CF90BF9021
:1024E000AF909F908F900895FC0188279927E894DA
:1024F00021912032E9F3293010F02E30C8F32B322D
:1025000039F02D3231F4689403C00BD0820F911D45
:10251000219120532A30C8F31EF4909581959F4F46
:1025200008957AE0979F902D879F802D910D11241B
:1025300008955058BB27AA270ED0B1C1A2D130F0C0
:10254000A7D120F031F49F3F11F41EF497C10EF48F
:10255000E095E7FB64C1E92FB3D180F3BA176207B6
:1025600073078407950718F071F49EF5E2C10EF425
:10257000E0950B2EBA2FA02D0B01B90190010C0193
:10258000CA01A0011124FF27591B99F0593F50F4AB
:10259000503E68F11A16F040A22F232F342F442703
:1025A000585FF3CF469537952795A795F0405395FB
:1025B000C9F77EF41F16BA0B620B730B840BBAF0CB
:1025C0009150A1F0FF0FBB1F661F771F881FC2F736
:1025D0000EC0BA0F621F731F841F48F4879577954A
:1025E0006795B795F7959E3F08F0B3CF9395880F01
:1025F00008F09927EE0F979587950895ECD008F489
:1026000081E008950CD04BC143D140F03AD130F075
:1026100021F45F3F19F003C151118CC12FC150D17A
:1026200098F39923C9F35523B1F3951B550BBB2799
:10263000AA2762177307840738F09F5F5F4F220F46
:10264000331F441FAA1FA9F333D00E2E3AF0E0E83F
:1026500030D091505040E695001CCAF729D0FE2F8B
:1026600027D0660F771F881FBB1F2617370748071D
:10267000AB07B0E809F0BB0B802DBF01FF279358D3
:102680005F4F2AF09E3F510568F0C9C053C15F3FBC
:10269000ECF3983EDCF3869577956795B795F795BB
:1026A0009F5FC9F7880F911D9695879597F90895B3
:1026B000E1E0660F771F881FBB1F6217730784074F
:1026C000BA0720F0621B730B840BBA0BEE1F88F75E
:1026D000E095089504D06894B1112CC10895F8D004
:1026E00088F09F5790F0B92F9927B751A0F0D1F0FB
:1026F000660F771F881F991F1AF0BA95C9F712C085
:10270000B13081F016D1B1E0089513C1672F782F51
:102710008827B85F39F0B93FCCF3869577956795F0
:10272000B395D9F73EF490958095709561957F4F5C
:102730008F4F9F4F0895E89409C097FB3EF4909502
:102740008095709561957F4F8F4F9F4F9923A9F08A
:10275000F92F96E9BB279395F69587957795679519
:10276000B795F111F8CFFAF4BB0F11F460FF1BC05D
:102770006F5F7F4F8F4F9F4F16C0882311F096E9F0
:1027800011C0772321F09EE8872F762F05C066239E
:1027900071F096E8862F70E060E02AF09A95660F57
:1027A000771F881FDAF7880F9695879597F9089510
:1027B000A9D080F09F3740F491110EF0BBC060E0CB
:1027C00070E080E89FEB089526F41B16611D711DD3
:1027D000811D2BC045C0990F0008550FAA0BE0E8DA
:1027E000FEEF16161706E807F907C0F012161306D3
:1027F000E407F50798F0621B730B840B950B39F413
:102800000A2661F0232B242B252B21F408950A2678
:1028100009F4A140A6958FEF811D811D089597F9B8
:102820009F6780E870E060E00895882371F4772363
:1028300021F09850872B762F07C0662311F4992733
:102840000DC09051862B70E060E02AF09A95660FDB
:10285000771F881FDAF7880F9695879597F908955F
:102860009F3F31F0915020F4879577956795B79504
:10287000880F911D9695879597F908959FEF80ECA5
:10288000089500240A9416161706180609060895D6
:1028900000240A9412161306140605060895092E3C
:1028A0000394000C11F4882352F0BB0F40F4BF2BAB
:1028B00011F460FF04C06F5F7F4F8F4F9F4F0895EB
:1028C00057FD9058440F551F59F05F3F71F04795E1
:1028D000880F97FB991F61F09F3F79F087950895C6
:1028E000121613061406551FF2CF4695F1DF08C0E5
:1028F000161617061806991FF1CF86957105610502
:1029000008940895E5DFA0F0BEE7B91788F4BB2767
:102910009F3860F41616B11D672F782F8827985FAF
:10292000F7CF869577956795B11D93959639C8F33E
:102930000895E894BB2766277727CB0197F9089578
:102940004ADF08F48FEF08950BD0A9CF9ADF28F063
:102950009FDF18F0952309F062CF90CF1124EACFC2
:10296000AFDFA0F3959FD1F3950F50E0551F629F05
:10297000F001729FBB27F00DB11D639FAA27F00DD8
:10298000B11DAA1F649F6627B00DA11D661F829FFF
:102990002227B00DA11D621F739FB00DA11D621FE4
:1029A000839FA00D611D221F749F3327A00D611D01
:1029B000231F849F600D211D822F762F6A2F1124E3
:1029C0009F5750408AF0E1F088234AF0EE0FFF1F36
:1029D000BB1F661F771F881F91505040A9F79E3F6D
:1029E000510570F01CCFA6CF5F3FECF3983EDCF3AF
:1029F000869577956795B795F795E7959F5FC1F7AA
:102A0000FE2B880F911D9695879597F90895AA1B1F
:102A1000BB1B51E107C0AA1FBB1FA617B70710F0C9
:102A2000A61BB70B881F991F5A95A9F780959095FB
:102A3000BC01CD010895EE0FFF1F881F8BBF0790CB
:102A4000F691E02D199481E090E0F89409C0FB0123
:102A5000DC018D91019080190110D9F3990B089533
:042A6000F894FFCF18
:102A6400600160016001600160016001600160015A
:102A7400A202AB02B202BB02A202C502CF02D8027A
:102A8400CF02E102EA02202020200000000000BC66
:102A9400076101B7050208E805C605DA050000006C
:102AA40000BD068E0659062C0650063C062D064926
:102AB4006E697469616C69736174696F6E206465B1
:102AC4007320696E74657272757074730A0044655C
:102AD40076696365206572726F72000D0A00446541
:102AE40076696365204F4B21004D565443004D5683
:102AF400544E00524F54410044454C410043484118
:102B04004E0044454C413B353030004D56544E3B0D
:102B1400330044454C413B383030004D5654433B20
:102B24003430303000524F54413B2D313830004462
:102B3400454C413B39303000524F54413B333630E1
:102B440000524F54413B313830004348414E3B53CF
:042B540054500000D9
:00000001FF
